{
  "contractName": "Soldex",
  "abi": [
    {
      "constant": true,
      "inputs": [
        {
          "name": "",
          "type": "bytes32"
        }
      ],
      "name": "wallet",
      "outputs": [
        {
          "name": "",
          "type": "uint256"
        }
      ],
      "payable": false,
      "stateMutability": "view",
      "type": "function"
    },
    {
      "constant": true,
      "inputs": [],
      "name": "owner",
      "outputs": [
        {
          "name": "",
          "type": "address"
        }
      ],
      "payable": false,
      "stateMutability": "view",
      "type": "function"
    },
    {
      "constant": true,
      "inputs": [
        {
          "name": "",
          "type": "bytes32"
        }
      ],
      "name": "escrow",
      "outputs": [
        {
          "name": "",
          "type": "uint256"
        }
      ],
      "payable": false,
      "stateMutability": "view",
      "type": "function"
    },
    {
      "inputs": [],
      "payable": false,
      "stateMutability": "nonpayable",
      "type": "constructor"
    },
    {
      "constant": false,
      "inputs": [
        {
          "name": "_quantity",
          "type": "uint256"
        },
        {
          "name": "_price",
          "type": "uint256"
        }
      ],
      "name": "placeBid",
      "outputs": [
        {
          "name": "",
          "type": "bool"
        }
      ],
      "payable": false,
      "stateMutability": "nonpayable",
      "type": "function"
    },
    {
      "constant": false,
      "inputs": [
        {
          "name": "_quantity",
          "type": "uint256"
        },
        {
          "name": "_price",
          "type": "uint256"
        }
      ],
      "name": "placeOffer",
      "outputs": [
        {
          "name": "",
          "type": "bool"
        }
      ],
      "payable": false,
      "stateMutability": "nonpayable",
      "type": "function"
    },
    {
      "constant": false,
      "inputs": [
        {
          "name": "buyQuantity",
          "type": "uint256"
        },
        {
          "name": "buyPrice",
          "type": "uint256"
        },
        {
          "name": "buyAddress",
          "type": "address"
        },
        {
          "name": "sellQuantity",
          "type": "uint256"
        },
        {
          "name": "sellPrice",
          "type": "uint256"
        },
        {
          "name": "sellAddress",
          "type": "address"
        }
      ],
      "name": "executeTrade",
      "outputs": [
        {
          "name": "",
          "type": "bool"
        }
      ],
      "payable": false,
      "stateMutability": "nonpayable",
      "type": "function"
    },
    {
      "constant": false,
      "inputs": [
        {
          "name": "newRecipient",
          "type": "address"
        }
      ],
      "name": "reassignFees",
      "outputs": [
        {
          "name": "",
          "type": "address"
        }
      ],
      "payable": false,
      "stateMutability": "nonpayable",
      "type": "function"
    },
    {
      "constant": false,
      "inputs": [],
      "name": "cashOut",
      "outputs": [
        {
          "name": "",
          "type": "bool"
        }
      ],
      "payable": false,
      "stateMutability": "nonpayable",
      "type": "function"
    }
  ],
  "bytecode": "0x608060405234801561001057600080fd5b506000336000806101000a81548173ffffffffffffffffffffffffffffffffffffffff021916908373ffffffffffffffffffffffffffffffffffffffff16021790555060408051908101604052807f5553440000000000000000000000000000000000000000000000000000000000600019166000191681526020017f4554480000000000000000000000000000000000000000000000000000000000600019166000191681525060069060026100c8929190610164565b50600090505b60068054905081101561015e576000600460006006848154811015156100f057fe5b90600052602060002001546000191660001916815260200190815260200160002081905550620f42406005600060068481548110151561012c57fe5b9060005260206000200154600019166000191681526020019081526020016000208190555080806001019150506100ce565b506101dc565b8280548282559060005260206000209081019282156101a6579160200282015b828111156101a5578251829060001916905591602001919060010190610184565b5b5090506101b391906101b7565b5090565b6101d991905b808211156101d55760008160009055506001016101bd565b5090565b90565b6104b3806101eb6000396000f30060806040526004361061008e576000357c0100000000000000000000000000000000000000000000000000000000900463ffffffff168063449b2f441461009357806357c90de5146100d8578063793cd71e146101275780638da5cb5b14610156578063a7e75032146101ad578063a95902b2146101f2578063a9be6ee014610241578063f7dfff1a146102c4575b600080fd5b34801561009f57600080fd5b506100c26004803603810190808035600019169060200190929190505050610367565b6040518082815260200191505060405180910390f35b3480156100e457600080fd5b5061010d600480360381019080803590602001909291908035906020019092919050505061037f565b604051808215151515815260200191505060405180910390f35b34801561013357600080fd5b5061013c61038a565b604051808215151515815260200191505060405180910390f35b34801561016257600080fd5b5061016b610392565b604051808273ffffffffffffffffffffffffffffffffffffffff1673ffffffffffffffffffffffffffffffffffffffff16815260200191505060405180910390f35b3480156101b957600080fd5b506101dc60048036038101908080356000191690602001909291905050506103b7565b6040518082815260200191505060405180910390f35b3480156101fe57600080fd5b5061022760048036038101908080359060200190929190803590602001909291905050506103cf565b604051808215151515815260200191505060405180910390f35b34801561024d57600080fd5b50610282600480360381019080803573ffffffffffffffffffffffffffffffffffffffff1690602001909291905050506103da565b604051808273ffffffffffffffffffffffffffffffffffffffff1673ffffffffffffffffffffffffffffffffffffffff16815260200191505060405180910390f35b3480156102d057600080fd5b5061034d6004803603810190808035906020019092919080359060200190929190803573ffffffffffffffffffffffffffffffffffffffff1690602001909291908035906020019092919080359060200190929190803573ffffffffffffffffffffffffffffffffffffffff16906020019092919050505061047b565b604051808215151515815260200191505060405180910390f35b60056020528060005260406000206000915090505481565b600080905092915050565b600080905090565b6000809054906101000a900473ffffffffffffffffffffffffffffffffffffffff1681565b60046020528060005260406000206000915090505481565b600080905092915050565b60008060009054906101000a900473ffffffffffffffffffffffffffffffffffffffff1673ffffffffffffffffffffffffffffffffffffffff163373ffffffffffffffffffffffffffffffffffffffff1614156104765781600160006101000a81548173ffffffffffffffffffffffffffffffffffffffff021916908373ffffffffffffffffffffffffffffffffffffffff1602179055508190505b919050565b600096955050505050505600a165627a7a72305820d735b5a04d8037eb73ac7b5b3d1b3e4ee08f9375e5ebfa9f84851a5af9406bfd0029",
  "source": "pragma solidity ^0.4.23;\n\ncontract Soldex {\n  address public owner;\n  address private feeRecipient;\n  byte constant version = 1; // kick off our contract version\n\n  struct Order {\n    uint quantity;  // amount in wei (10^18)\n    uint price;     // how do you do decimals like in prices?\n    address owner;  // who submitted this order?\n  }\n\n\n  // STATE VARIABLES\n  Order[] bidStack;     // how will we order this?\n  Order[] offerStack;   // how will we order this?\n  // Funds being held to allow bids and offers\n  mapping ( bytes32 => uint ) public escrow;\n  // for v1, the exchange is just trading with itself so needs a wallet\n  mapping ( bytes32 => uint ) public wallet;\n  bytes32[] supportedCurrencies;\n\n  // Events:\n  // event LogBidReceived( address addr, uint quantity, uint price );\n  // LogOfferReceived( address addr, uint quantity, uint price );\n  // LogTradeSettled( address buyAddr, address sellAddr, uint quantity, uint price );\n\n\n  constructor() public {\n    owner = msg.sender;\n    supportedCurrencies = [bytes32(\"USD\"), bytes32(\"ETH\")];\n    for(uint i = 0; i < supportedCurrencies.length; i++){\n      escrow[supportedCurrencies[i]] = 0;\n      wallet[supportedCurrencies[i]] = 1000000;\n    }\n  }\n\n  // Modifiers\n  // modifier isFeeRecipient(){ require(msg.sender == feeRecipient); _; }\n\n  modifier restricted() {\n    if (msg.sender == owner) _;\n  }\n\n  modifier sufficientFunds( Order _order) {\n    require (msg.value >= _order.price * _order.quantity );\n    _;\n  }\n\n  function placeBid(uint _quantity, uint _price) public returns(bool){\n    // Add bids to the bid stack\n    // Add funds to escrow\n    return false;\n  }\n\n  function placeOffer( uint _quantity, uint _price) public returns(bool){\n    // add offers to the offer stack\n    // Add funds to the escrow\n    return false;\n  }\n\n  // Very basic: Assumes quantity and price are the same\n  function executeTrade( uint buyQuantity, uint buyPrice, address buyAddress, uint sellQuantity, uint sellPrice, address sellAddress ) public returns(bool){\n    // Match the two orders, verifying they match.\n    // Subtract wallet funds and escrow funds as appropriate\n  }\n\n  // Change who will get all the fees when we cash out\n  function reassignFees( address newRecipient ) restricted public returns(address){\n    feeRecipient = newRecipient;\n    return newRecipient;\n  }\n\n  // Cash out\n  function cashOut() public returns( bool ){\n    // subtract balances\n    // send the money back to the recipient\n    return false;\n  }\n\n}\n",
  "sourcePath": "/Users/eriktrautman/Documents/crypto/soldex/contracts/Soldex.sol",
  "compiler": {
    "name": "solc",
    "version": "0.4.24+commit.e67f0147.Emscripten.clang"
  },
  "schemaVersion": "2.0.1",
  "updatedAt": "2018-10-07T04:18:18.328Z"
}